:020000040000FA
:1000000000000228E130FE008030FF0080308031A7
:10001000C42080312000A1007F08A000E330A200AE
:100020008030A30020002008A4002108A500FF3094
:10003000A007031CA1032408250403197F2804300A
:100040002207A400A501A50D2308A5072408FE008A
:100050002508FF0080308031C42080312000A700B7
:100060007F08A6002208FE002308FF0080308031B0
:10007000C42080312000A900A5007F08A800A400AA
:1000800002302207A400A501A50D2308A507240816
:10009000FE002508FF0080308031C4208031200020
:1000A000A500AB007F08A400AA0020002608AA0033
:1000B0002708AB00FF30A607031CA7032A082B0460
:1000C000031979282808FE002908FF0080308031B4
:1000D000B22080312000AA00240884002508850071
:1000E0002A088000A80A0319A90AA40A0319A50A64
:1000F000552806302000A2070318A30A12288031D1
:10010000822808009E2021008C120C118F202200D2
:100110008C168C168C168C168C12872808003B00C7
:10012000BE01B101B201FF30B3007C30B400FF303A
:10013000B500F930B600C030BB000800F030210037
:1001400099009515951220008B018B138B12950148
:1001500023008C0121009D019E019F01220091013D
:1001600092010800003A0319B928803A0319BF2800
:1001700000347E0884007F088500000808007F089E
:100180008A007E0882000800003A0319CC28803AD1
:100190000319D428FF0100347E0884007F088500FD
:1001A0001200FF00000808008031BF20FD00FE0F94
:1001B000FF03FF0A8031BF20FC007D08FF007C08A0
:1001C000080001340034E93400342C3400340134A4
:0401D00000340034C3
:020000040001F9
:02000E00E439D3
:02001000FF3EB1
:00000001FF
