:020000040000FA
:1000000000001828003400348A0120008B130B1CD8
:10001000132817082000B100200016082000B200A5
:100020002000970196012700930120008B170900FB
:100030001230FE008130FF0080308031F5208031A9
:100040002000A1007F08A0001430A2008130A3008E
:1000500020002008A4002108A500FF30A007031CF1
:10006000A103240825040319952804302207A400BD
:10007000A501A50D2308A5072408FE002508FF00FB
:1000800080308031F52080312000A7007F08A60055
:100090002208FE002308FF0080308031F5208031E7
:1000A0002000A900A5007F08A800A40002302207B4
:1000B000A400A501A50D2308A5072408FE00250816
:1000C000FF0080308031F52080312000A500AB009A
:1000D0007F08A400AA0020002608AA002708AB0079
:1000E000FF30A607031CA7032A082B0403198F2837
:1000F0002808FE002908FF0080308031E32080318D
:100100002000AA0024088400250885002A08800011
:10011000A80A0319A90AA40A0319A50A6B2806301C
:100120002000A2070318A30A282880319828080075
:10013000C520200031082000AE00AC00AD01200039
:1001400032082000AF002000AC00AD012E082000D6
:10015000B00001303002031DAF28F5302F02031C20
:100160009928023020003002031DB82858302F0291
:100170000318992822008C168C168C168C122000DD
:10018000B1012000B2019928080020008B018B17D3
:100190008B1527001215111523008C0121009D01DC
:1001A0009E019F01220091019201210019179916C9
:1001B000191699118C120C15200018139813181683
:1001C000981618140800003A0319EA28803A03190F
:1001D000F02800347E0884007F08850000080800AD
:1001E0007F088A007E0882000800003A0319FD2873
:1001F000803A03190529FF0100347E0884007F0836
:1002000085001200FF00000808008031F020FD008A
:10021000FE0FFF03FF0A8031F020FC007D08FF0085
:100220007C080800033400340234003431340034D4
:1002300001340034033400343234003401340034E7
:0E0240002634013433340034013400340034E9
:020000040001F9
:02000E00E439D3
:02001000FF3FB0
:00000001FF
